:020000040000FA
:1000000090B00000090100000D0100000F01000088
:1000100011010000130100001501000000000000A4
:1000200000000000000000000000000017010000B8
:1000300019010000000000001B0100001D0100006C
:1000400003010000DFF80CD000F044FC004800473A
:10005000C300000090B0000010B500210C2000F09B
:100060009DF800F0FFF801210C2000F097F8002126
:100070000D2000F093F800F0F5F801210D2000F0BC
:100080008DF800210E2000F089F800F0EBF8012136
:100090000E2000F083F800210F2000F07FF800F020
:1000A000E1F801210F2000F079F80021102000F084
:1000B00075F800F0D7F80121BDE81040102000F0DD
:1000C0006DB882B041F6FF70009000F02BF800F0A0
:1000D000CBFA01210F2000F061F80A4C2068401C87
:1000E00020604FF47A7000F024F800210D2000F019
:1000F00055F8662000F040FB01210D2000F04EF87D
:10010000ECE7704700B0000005480047FEE7FEE757
:10011000FEE7FEE7FEE7FEE7FEE7FEE7FEE700009C
:10012000C30000001B483C2101704EF66021418055
:10013000704718490978414317484160002383609C
:10014000016841F001010160016811F0010F02D066
:1001500011F4803FF8D0016821F001010160836053
:1001600070470C49498841430B4841600023836034
:10017000016841F001010160016811F0010F02D036
:1001800011F4803FF8D0016821F001010160836023
:100190007047000004B00000005000A0304B81B058
:1001A0005FEA501C02D0BCF1010F00D01A4600F0EB
:1001B0001F00D2F810C0012303FA00F04CEA00033C
:1001C000009313610029516811BF08434FF6FF7374
:1001D00058400840106001B07047214A81B043097F
:1001E00001D0012B00D0114600F01F00012202FABD
:1001F00000F00090486101B07047194A81B043098E
:1002000001D0012B00D0114600F01F0001228240D6
:1002100000924A61096801B041FA00F000F0010063
:1002200070470F4B81B05FEA501C02D0BCF1010F48
:1002300000D01A4600F01F00012359B101291CBF4C
:1002400001B07047116903FA00F008430090106193
:1002500001B0704703FA00F00090506101B07047A0
:100260000000014081B04FF4FF700090811E801E9D
:1002700000910028FADC481E009001B0704710B5CC
:10028000F84C01216078FFF789FF01212078FFF702
:1002900085FFFFF7E7FF00216078FFF77FFFFFF79B
:1002A000E1FF2078BDE810400021FFF777BF10B5CF
:1002B000EC4C00216078FFF771FF01212078FFF7F7
:1002C0006DFFFFF7CFFF01216078FFF767FFBDE803
:1002D0001040C7E710B5E34C01466078FFF75EFFBA
:1002E00001212078FFF75AFFFFF7BCFF002120789B
:1002F000FFF754FFBDE81040B4E770B5D94C607803
:10030000FFF76BFF00212078FFF748FFFFF7AAFFF8
:10031000FFF7A8FF01212078FFF740FFFFF7A2FFBA
:100320006078FFF76AFF00F0010500212078FFF7F1
:1003300035FFFFF797FF284670BDF8B5C94D074652
:1003400000244FF4FF7600212878FFF727FF07FAF3
:1003500004F010F0800F04D001216878FFF71EFF31
:1003600003E000216878FFF719FF4FF4FF71009652
:10037000881E891E00900029FADC401E0090012191
:100380002878FFF70BFF4FF4FF710096881E891E37
:1003900000900029FADC401E009000212878FFF729
:1003A000FDFE641C082CCEDB6878FFF716FF0021E9
:1003B0002878FFF7F3FEFFF755FFFFF753FF012102
:1003C0002878FFF7EBFEFFF74DFF6878FFF715FF82
:1003D00000F0010400212878FFF7E0FEFFF742FF5C
:1003E0002046F8BDF8B500269E4C35464FF4FF7701
:1003F0007006060E01212078FFF7D0FE4FF4FF7043
:100400000097811E801E00910028FADC481E009093
:100410006078FFF7F2FE00F001000643002120782B
:10042000FFF7BCFE4FF4FF710097881E891E0090F5
:100430000029FADC401E0090681CC5B2082DD7D3F5
:100440003046F8BD042994BF042B70472DE9F047CE
:10045000DFF810820D4681461C461646012198F8A9
:100460000100089FFFF79AFE012198F80000FFF7AE
:1004700095FEFFF7F7FE002198F80100FFF78EFECA
:10048000FFF7F0FE002198F80000FFF787FE4846CE
:10049000FFF753FF45B1E800083826FA00F0C0B274
:1004A000FFF74BFF6D1EF6D144B1E000083827FA84
:1004B00000F0C0B2FFF741FF641EF6D1FFF7D2FE95
:1004C000002198F80100FFF769FE012198F800006B
:1004D000FFF764FEFFF7C6FE012198F80100FFF761
:1004E0005DFEBDE8F047BDE6042994BF042B7047CC
:1004F0002DE9F8435B4E0C4680461F461546012108
:100500007078DDF82090FFF749FE01213078FFF781
:1005100045FEFFF7A7FE00217078FFF73FFEFFF7CB
:10052000A1FE00213078FFF739FE4046FFF705FFB6
:1005300044B1E000083825FA00F0C0B2FFF7FDFE34
:10054000641EF6D101217078FFF728FE0121307872
:10055000FFF724FEFFF786FE00217078FFF71EFEEE
:10056000FFF780FE00213078FFF718FE08F1010048
:10057000C0B2FFF7E2FEFFF775FE002F18BF4FF481
:10058000FF785DD000252C466806050E01213078E5
:10059000FFF704FE4FF4FF70CDF80080811E801E2F
:1005A00000910028FADC481E00907078FFF725FEC5
:1005B00000F00100054300213078FFF7EFFD4FF414
:1005C000FF70CDF80080811E801E00910028FADCAB
:1005D000481E0090601CC4B2082CD5D309EB07005C
:1005E00000F8015C4FF4FF70CDF80080811E801E82
:1005F00000910028FADC481E00907F1E10D00021D8
:100600007078FFF7CBFD01213078FFF7C7FDFFF7CA
:1006100029FE00213078FFF7C1FDFFF723FEB1E787
:1006200001217078FFF7BAFD01213078FFF7B6FDA0
:10063000FFF718FE00213078FFF7B0FDFFF712FE3C
:1006400000217078FFF7AAFD01213078FFF7A6FDA1
:10065000FFF708FE01217078FFF7A0FDBDE8F84321
:1006600000E6000008B0000000B583B000208DF85F
:1006700005008DF804008DF8030001208DF80200BC
:10068000684600F08BF800F0C5F803B000BD38B53F
:100690000C46054600F080F800F0D2F80028FBD1A7
:1006A00000F0DAF8002808BF00F003F945F08000F8
:1006B00000F0E3F8FF2000F0E0F800F0BBF8684637
:1006C00000F0E7F80028FAD100F067F89DF8000084
:1006D000207038BDF8B516460D46044600F05CF8AB
:1006E00000F0BAF8002808BF00F0E3F844F08000FA
:1006F00000F0C3F8FF270024002D06D9384600F08B
:10070000BCF8601CC4B2A542F8D800F093F80024ED
:10071000684600F0BEF8002808BFF8BD05E024B127
:1007200031199DF8000001F8010C601CC4B2684644
:1007300000F0AFF80028F2D1F8BD70B50C460546C0
:1007400000F02AF800F07CF80028FBD1284600F0E1
:1007500094F8204600F091F800F06CF800F07CF876
:10076000002808BF00F0A5F8BDE8704000F015B8FB
:10077000818170478089704706490A8912F0020F0B
:10078000FBD0C0B28881088910F0010FFBD08889A6
:1007900070470000007000A07047704782B04B495E
:1007A0004B4A00230193019B43F0FF030193019BFC
:1007B0000B618178BDF8003061F38203ADF8003041
:1007C000C178BDF8003061F3CB23ADF8003041793A
:1007D000BDF8003061F30003ADF800300079BDF8DA
:1007E000001060F34101ADF80010BDF8000010806A
:1007F00002B07047364881B00188ADF80010BDF8EE
:10080000001021F04001ADF80010BDF8001001808B
:1008100001B070472E4881B00188ADF80010BDF8D6
:10082000001041F04001ADF80010BDF8001001804B
:1008300001B070472548C16811F0100FFBD1704717
:10084000224881B0C0680090009810F0020F0CBFE1
:100850000120002001B070471C4881B0C0680090A2
:10086000009810F0040F0CBF0120002001B0704769
:10087000164A9060906808707047144B81B0194612
:10088000CA680092009A12F0020FF9D0986001B085
:1008900070470E4981B0CA680092009A12F0040FA6
:1008A00002BF002001B0704789680170012001B0CB
:1008B00070470648C16811F0040F08BF704781688F
:1008C000C16811F0040FFAD170470000009000A039
:1008D000007000A0064C074D06E0E06840F0010300
:1008E00094E8070098471034AC42F6D3FFF7AEFB0C
:1008F000180900003809000002E008C8121F08C1EA
:10090000002AFAD170477047002001E001C1121F90
:10091000002AFBD1704700003809000000B0000039
:100920000C000000F8080000440900000CB00000B2
:100930008400000008090000000000000000000022
:0409400000000000B3
:0400000500000045B2
:00000001FF
